:020000020000FC
:0200000020C01E
:0200100058C0D6
:1000400048C00FEF0DBF08E00EBFF89400E8009322
:10005000610004E00093610008E107B907EE08B908
:1000600002E00093680003E000936C00E0E0F1E040
:100070003FE3319336E031933BE531933FE43193F5
:1000800036E631933DE631933DE7319337E03193E6
:100090003FE7319337E6319300E0E02F01E0F02FA6
:1000A00003E005BD04E606BD01E000936E000FEF1E
:1000B0000AB904B980E040E050E060E070E0789474
:1000C000FFCF96B190FF839591FF8A958F7085B988
:1000D000189504E606BD4395443658F044275395D9
:1000E0005A3018F0552763951895663010F066273A
:1000F000189570957170703051F000E011E0050FA7
:10010000E02FF12F20812BB900E108B9189500E00C
:1001100011E0060FE02FF12F20812BB908E008B97C
:02012000189530
:00000001FF
