:020000020000FC
:040000000C940A0052
:100010000C943B000FEF0DBF08E00EBFF89400E812
:100020000093610004E0009361000FE004B900E078
:1000300007B90FEF08B902E00093680003E00093EE
:100040006C00E0E0F1E03FE3319336E031933BE5D3
:1000500031933FE4319336E631933DE631933DE70A
:10006000319337E031933FE7319337E680E078947E
:10007000082F05B9FDCF06B100FF0E94430001FF24
:100080000E944600189583958F7008958A958F7009
:020090000895D1
:00000001FF
