:020000020000FC
:040000000C9421003B
:040010000C946F00DD
:1000400056C00FEF0DBF08E00EBFF89401E000931B
:100050006E0001E0009315000E946A0000E8009322
:10006000610004E0009361000FE004B90FEF0AB9EA
:1000700000E007B90FEF08B902E00093680003E061
:1000800000936C00E0E0F1E03FE3319336E0319320
:100090003BE531933FE4319336E631933DE63193CE
:1000A0003DE7319337E031933FE7319337E63193C2
:1000B000E0E0F1E080E07894082F05B94436E1F7FC
:1000C000442731915E2F5A3011F03BB9F5CFE0E073
:1000D0003BB9F2CF13E015BD14E616BD089506B185
:1000E00000FF0E947B0001FF0E947E00189504E63D
:1000F00006BD4395189583958F7008958A958F70E6
:02010000089560
:00000001FF
